:020000040800F2
:10000000480D002075C8000871C5000873C50008B8
:1000100075C5000877C5000879C500080000000014
:100020000000000000000000000000007BC5000888
:100030007DC50008000000007FC5000881C50008DC
:10004000ADC8000883C50008B1C80008B5C80008DD
:10005000B9C80008BDC80008C1C80008C5C8000864
:10006000C9C80008CDC80008D1C80008D5C8000814
:10007000D9C80008DDC80008E1C80008E5C80008C4
:10008000E9C80008EDC80008F1C80008F5C8000874
:10009000F9C80008FDC8000801C9000887C50008A4
:1000A00005C900088DC5000809C900080DC9000868
:1000B00011C9000815C9000819C900081DC90008A0
:1000C00021C9000825C9000829C9000893C50008EE
:1000D0002DC9000831C9000835C9000839C9000810
:1000E0003DC9000841C9000845C9000849C90008C0
:1000F0004DC9000851C9000855C9000859C9000870
:100100005DC9000861C9000865C9000869C900081F
:1001100099C500089FC500086DC9000871C900088D
:1001200075C9000879C900087DC9000881C900089F
:1001300085C9000889C900088DC9000891C900084F
:1001400095C9000899C900089DC90008A1C90008FF
:10015000A5C90008A9C90008ADC90008B1C90008AF
:10016000B5C90008B9C90008BDC90008C1C900085F
:10017000C5C90008C9C90008CDC9000800000000B1
:10018000D1C90008D5C90008D9C90008DDC90008CF
:10019000E1C90008E5C90008E9C90008EDC900087F
:1001A000F1C90008F5C90008F9C90008FDC900082F
:1001B00001CA000800F5E0700268914203D3436869
:1001C0001A44914202D380680028F5D1704718493B
:1001D000086880B94FF4805048604FF480324FF087
:1001E000FF30C86008610420124B8A604861C3F880
:1001F000BC01114808600120704701F1080313F0A9
:10020000070F0EBF0023C3F1080303F007031944CF
:10021000D21A8161C26042F001034B60091D4FF0A8
:10022000280C41F802C0024A1369C36170470000FC
:1002300018090020E00500206859883C2DE9F84F96
:1002400084B00646AFF30080F52E1E4D80F0138279
:100250000B2E31BF10260B36F608F6002868F4087E
:10026000E04010F0030F4AD0C04300F00100041931
:1002700005F1280000EBC408E700D8F808607068B2
:10028000C008C000B84218BF01F016FAD6F80890AE
:10029000464508BF01F010FA4E4508BF01F00CFAC0
:1002A0007068C008C000B84218BF01F005FAC84520
:1002B0000AD12868012101FA04F420EA04042C6020
:1002C00010E000BFE00500202869814508D3D9F877
:1002D0000C10B14204D1C8F80890C9F80C8001E0B4
:1002E00001F0EAF947F00300311D7060301DCA5972
:1002F00042F00102C25106F1080800F01DBFA968D2
:10030000B14280F0A883002800F0A2804FF00108DD
:1003100008FA04F1490000FA04F4484201430C4091
:1003200060420440641E200B00F01000C4406109CC
:1003300001F00801CC40A20802F00402D440630896
:1003400003F002030818DC401018C4F34007181823
:100350003818FC40241805F1280000EBC40AE70017
:10036000DAF80890D9F80400C008C000B84218BFF5
:1003700001F0A2F9D9F808B0D14508BF01F09CF905
:10038000D94508BF01F098F9D9F80400C008C000A9
:10039000B84218BF01F090F9DA4506D1286808FA8A
:1003A00004F420EA04042C600DE029698B4508D38D
:1003B000DBF80C00484504D1CAF808B0CBF80CA013
:1003C00001E001F079F9BF1B46F0030009F10402D6
:1003D000C9F8040047F00101915109EB06020192AE
:1003E000D751AC684FEAD40ABAF11F0F88BF01F0A9
:1003F00063F934B3CDF800A005F128006E6900EB75
:10040000CA0AD346102C38BF01F056F92968009863
:1004100021FA00F2D30704D408FA00F00843286058
:1004200007E0DAF80800296988422CBF834601F00A
:1004300043F9CAF80860CBF80C60C6F808B0C6F8F3
:100440000CA0AF6009F108080198686100F074BE63
:100450006868002800F0208341420840401E010BDC
:1004600001F01001C840420902F00802D0408308A0
:1004700003F00403D840440804F002045118E0409B
:100480005918C0F34007611805F598787918F840B5
:10049000401858F820104868C008C0008A46A0EBF1
:1004A000060B08E001464868C008C000801B58459C
:1004B0003CBF83468A4608690028F3D14969002970
:1004C000F1D128698245C0F0D380DAF80410C90858
:1004D00006EB0B09C900494518BF01F0EDF80AEB1E
:1004E00006008245019080F0C380DAF80C40DAF80B
:1004F000187054450DD0DAF808002969884223D3D2
:10050000C268524504BFA16851451DD1C460A060B6
:100510001CE00AF114010C6834B90AF110010C68EE
:10052000A4B101E011460C6804F11402106800281F
:1005300002BF04F1100210680028F3D1286981423B
:1005400002D300220A6001E001F0B6F8002F38D093
:10055000DAF81C0008EB80010A6892450AD11CBB3E
:100560006A68012303FA00F022EA000068600020B4
:10057000086026E029698F4213D33869504514BFBB
:100580007C613C61ECB129698C4218D3A761DAF82F
:10059000100058B1884226BF2061846101F08CF8B8
:1005A00004E001F089F8EDE70C60ECE7DAF81400FC
:1005B00038B12969884202D36061846101E001F0A9
:1005C0007BF8BBF1100F0ED249F003000AF10401D1
:1005D000CAF804000AF1040051F8092042F00102AF
:1005E00040F809203EE046F003010AF10402CAF88F
:1005F00004104BF001009051019941F80BB0A8682C
:100600000090C4081F2C88BF01F056F8009828B34A
:1006100005F1280000996F6900EBC408C146102954
:1006200038BF01F049F8286820FA04F1CA0705D458
:10063000012101FA04F404432C6007E0D8F8080013
:10064000296988422CBF814601F036F8C8F8087045
:10065000C9F80C70C7F80890C7F80C80C5F808B046
:10066000019868611AF1080800F0F58100F064BD96
:1006700001F022F8EFE116F1400F28BF4FF0FF36EE
:1006800080F0E9810B36F6086B68F600002B00F06D
:10069000E2810027300AC6F1000908BF002423D0F8
:1006A000B0F5803F28BF1F241ED2A0F58071090C31
:1006B00001F008018840A0F58052120C02F00402FB
:1006C0009040A0F58044240CC1F10E0104F0020416
:1006D000891A091BA04001EBD031C81D26FA00F48D
:1006E00004F0010404EB410405F5987858F824005F
:1006F00030B31F2C0FBFB4464FEA540CCCF1190C89
:1007000006FA0CFCBE46494601E04FEA4C0C426832
:10071000D208D200921B8A4202D2110007460CD0A6
:10072000426910304FEADC7950F82900002A1CBFDA
:10073000824296460028E8D170468946A8BBB7BBDE
:10074000012101FA04F4640060420443234000F0F4
:100750008281584203405B1E180B00F01000C3401A
:10076000590901F00801CB409A0802F00402D34075
:100770005C0804F002040818E3401018C3F3400CAE
:100780002018604423FA0CF31B1858F823000CE0DF
:1007900008464168C908C900891B49453CBF8946CC
:1007A000074601690029F3D140690028F1D1002FE3
:1007B00000F05181A868801B814580F04C81296937
:1007C0008F42FFF455AF7868C008C00006EB0901FE
:1007D000884218BF00F070FF07EB060B5F45BFF4BF
:1007E00047AFFC68D7F818A0BC420CD0B86829699C
:1007F000884223D3C268BA4204BFA168B9421DD15E
:10080000C460A0601CE007F114010C6834B907F162
:1008100010010C68A4B101E011460C6804F1140247
:100820001068002802BF04F1100210680028F3D1FC
:100830002869814202D300220A6001E000F03CFFF7
:10084000BAF1000F39D0F86908EB80010A689742C5
:100850000AD134BB6A68012303FA00F022EA0000DF
:1008600068600020086028E029698A4516D3DAF814
:100870001000B84214BFCAF81440CAF81040E4B1DE
:1008800029698C4217D3C4F818A0386958B1884236
:1008900026BF2061846100F00FFF04E000F00CFF30
:1008A000EDE70C60ECE7786938B12969884202D33A
:1008B0006061846101E000F0FFFEB9F1100F0CD21D
:1008C000B14449F00300391D7860381D51F8092002
:1008D00042F0010240F80920B9E046F003013A1D58
:1008E000796049F0010090514FEAD9004BF8099026
:1008F0001F2822D805F1280101EBC004296821FA3C
:1009000000F2D307A04605D4012202FA00F0084302
:10091000286006E0A068296988422CBF804600F064
:10092000CBFEC4F808B007F10800C8F80CB040F8D6
:10093000068007F10C018C5189E05FEA192008BF9D
:10094000002123D0B0F5803F28BF1F211ED2A0F583
:100950008072120C02F008029040A0F58051090C40
:1009600001F004018840A0F580431B0CC2F10E0287
:1009700003F00203521AD21A984002EBD032D01D73
:1009800029FA00F101F0010101EB420107F1140322
:10099000CBF81C1000229A5107F1100308EB8100DC
:1009A0009A516A6822FA01F3DC0711D4012303FA91
:1009B00001F111436960C0F800B0CBF8180007F1ED
:1009C000080107F10C0040F806B041F806B03EE01F
:1009D00002681F291DBF4908C1F1190109FA01F177
:1009E000494600E002465068C008C000484518D09B
:1009F00002F11003C80F03EB8003490018680028B8
:100A0000F0D12869834220D3C3F800B007F10C016C
:100A1000CBF8182041F806B007F1080040F806B0FE
:100A200015E0296990688A4228BF88420DD3C0F832
:100A30000CB007F10801C2F808B0885107F10C00AA
:100A400082510022CBF8182001E000F035FE17F1AA
:100A5000080840F07183A868B0421DD3811B6A6901
:100A6000102909D39319A96041F001005860595029
:100A700046F0030656600BE00021A96040F0030435
:100A8000111D5460141D0E5846F001062650002317
:100A90006B6102F108084FE3E8688642C0F03C83CE
:100AA000DFF8CC9BD9F8000008B9FFF790FBD9F824
:100AB000081088192F30491E20EA01018E4280F06B
:100AC000398305F5D877B86838B13A6889188A4209
:100AD00080F030838842C0F02D8300F00DFE0028A6
:100AE0001CBFD0F8008010F1010F00F0238339689B
:100AF0007A68414439608A4238BF7960AC6904BB86
:100B0000296909B1884200D2286100213861C7F8FB
:100B10001480F9614FF0FF31D9F800206A62296230
:100B200005F1280200219260D26002F108035361AE
:100B30001361891C10321F29F5D9A8F1280201463A
:100B40001DE005F5E0710A46814600E09268D2B1E9
:100B50001068536803449945F8D1107B030712D4F9
:100B600013689C420FD3D2F804C063449C420AD25B
:100B7000C444C2F804C02146E86808EB00022846D5
:100B8000FFF73BFBC5E22869814538BFC5F81090E7
:100B900009EB080000E08968002900F0C1810A68BB
:100BA0008242F8D1087B020700F1BA810868C1F8D7
:100BB00000904A6842444A6009F1080111F0070FA9
:100BC00008BFCDF8049006D0C1F1080101F007017B
:100BD00009EB0102019200F1080111F0070F04D0A6
:100BE000C1F1080101F00701084480460198A8EB13
:100BF00000018419A1EB060B274646F00306466068
:100C0000474528BF00F058FD98F80400C10758BFB9
:100C100000F052FDBBF1100F38BF00F04DFDA86988
:100C2000804508D1E9688B44C5F80CB0AF614BF042
:100C30000100786070E1686980450AD1A9686F6138
:100C40008B44C5F808B04BF00100786047F80BB052
:100C500062E1D8F8040000F00301012940F0BC80F3
:100C6000C008C000C1081F29039040D8D8F8082048
:100C70000092D8F80C600291B04508BF00F01CFD4E
:100C80000098804508BF00F017FDD8F804000299CD
:100C9000C008C000B0EBC10F18BF00F00DFD0299F5
:100CA000009A05F1280000EBC100824208D01146ED
:100CB0002A699142C0F08B80CA68424540F0878023
:100CC00000998E4206D102982A68012383409A43F4
:100CD0002A607EE0864205D029698E4277D3B068CB
:100CE000404574D10098C6600099B16071E0D8F8B1
:100CF00018000090D8F80C6046450DD0D8F80800D0
:100D00002969884223D3C268424504BFB16841457E
:100D10001DD1C660B0601CE008F114010E6836B940
:100D200008F110010E68A6B101E011460E6806F147
:100D300014021068002802BF06F110021068002893
:100D4000F3D12869814202D300220A6001E000F059
:100D5000B3FC009800283CD0D8F81C0005F5987129
:100D600001EB80010A6890450AD12EBB6A68012315
:100D700003FA00F022EA000068600020086028E022
:100D800000992869814214D30869404514BF4E6117
:100D90000E61F6B129698E4219D30098B061D8F876
:100DA000100058B1884226BF3061866100F084FC93
:100DB00004E000F081FCECE70E60EBE7D8F81400EB
:100DC00038B12969884202D37061866101E000F080
:100DD00073FC039988448B44D8F8041049084900EF
:100DE000C8F804104BF0010078604FEADB0647F8C2
:100DF0000BB01F2E22D805F1280000EBC604A14637
:100E0000BBF1100F38BF00F057FC286820FA06F13C
:100E1000CA0705D4012101FA06F606432E6006E052
:100E2000A068296988422CBF814600F045FCA76074
:100E3000C9F80C70C7F80890FC606DE05FEA1B20F1
:100E400008BF002123D0B0F5803F28BF1F211ED24C
:100E5000A0F58072120C02F008029040A0F58051BB
:100E6000090C01F004018840A0F580431B0CC2F17D
:100E70000E0203F00203521AD21A984002EBD0324B
:100E8000D01D2BFA00F101F0010101EB4201F961E3
:100E9000002305F598727B6102EB81003B616A6873
:100EA00022FA01F3DE0707D4012303FA01F111430B
:100EB00069600760B8611DE002681F291DBF49080D
:100EC000C1F119010BFA01F1594600E002465068E0
:100ED000C008C000584510D002F11003C80F03EB42
:100EE0008003490018680028F0D12869834211D393
:100EF0001F60BA61FF60BC600EE0296990688A4299
:100F000028BF884206D3C7609760B860FA600020A7
:100F1000B86101E000F0D0FB019800F108080BE196
:100F200021462846FFF746F90168406808440090CA
:100F3000A0F1270111F0070000980EBF0021C1F1B8
:100F4000080101F007010844A0F12F0B04F1100182
:100F50008B4538BFA3460BF1180200210292019184
:100F6000A8F1280249462846FFF747F90BF1080087
:100F700010F0070F18BF00F09FFB1B20CBF80400F8
:100F800005F5E07292E809500BF1080181E809507B
:100F900000210BF10800F961B861009A02980199EB
:100FA000C7F81090C7F81480072300E0001D491C03
:100FB00000F1080797424360F8D30129D8BF00F039
:100FC0007BFBA34500F0A580ABEB040B201D221D8D
:100FD00050F80B104908490042F80B104BF0010083
:100FE00060604FEADB0944F80BB0B9F11F0F22D85B
:100FF00005F1280000EBC907B846BBF1100F38BF58
:1010000000F05AFB286820FA09F1CA0705D401212B
:1010100001FA09F10843286006E0B86829698842A6
:101020002CBF804600F048FBBC60C8F80C40C4F8F8
:101030000880E7606DE05FEA1B2008BF002123D035
:10104000B0F5803F28BF1F211ED2A0F58072120C80
:1010500002F008029040A0F58051090C01F0040153
:101060008840A0F580431B0CC2F10E0203F002037E
:10107000521AD21A984002EBD032D01D2BFA00F14E
:1010800001F0010101EB420105F59872002302EB2A
:101090008100E161636123616A6822FA01F3DF077D
:1010A00007D4012303FA01F1114369600460A061D0
:1010B0001DE002681F291DBF4908C1F119010BFA83
:1010C00001F1594600E002465068C008C00058458A
:1010D00010D002F11003C80F03EB80034900186819
:1010E0000028F0D12869834211D31C60A261E4601A
:1010F000A4600EE0296990688A4228BF884206D31E
:10110000C4609460A060E2600020A06101E000F093
:10111000D3FAE86886420DD2801BA969E8608A1973
:10112000AA6140F00100506046F003064E6001F1F4
:10113000080801E04FF00008AFF30080404605B01A
:10114000BDE8F08F002800D170472DE9F047A0F1ED
:101150000805AFF30080DFF85C6531698D42C0F0AF
:101160008482686800F00302012A00F07E82C208CF
:101170004FEAC209C20705EB090839D42C6810F000
:10118000030F00F06E82604205448D42A144C0F01E
:101190006C827069854200F0DE80E408202C72D2F7
:1011A000D5F80CA0AF68554508BF00F085FABD42E0
:1011B00008BF00F081FA6868C008C000B0EBC40F37
:1011C00018BF00F079FA06F1280000EBC40087424E
:1011D00005D031698F4253D3FA68AA4250D1BA453B
:1011E00040D13068012101FA04F420EA040434609B
:1011F000454580F03A82D8F80440E00740F1358256
:10120000A10700F18381B069804540F0B780F168A3
:10121000B5618944C6F80C9049F0010068607169B5
:101220008D4202D100207061B060F169494580F0C3
:101230001882DFF83C24106808B9FEF7C8FFB169CE
:10124000002900F00E82F068292824BF3046FEF7FE
:10125000B1FFF069F168884280F003824FF0FF30FF
:10126000F061FEE1824506D03069824508D3DAF8A4
:101270000810A94204D1C7F80CA0CAF80870B7E753
:1012800000F01AFAB4E7EC68AF69AC420BD0A8687A
:10129000884222D3C168A94204BFA268AA421CD1D5
:1012A000C460A0601BE005F11402146834B905F1B4
:1012B000100214689CB101E01A46146804F114038A
:1012C0001868002802BF04F1100318680028F3D141
:1012D0008A4202D30021116001E000F0EDF9002FF5
:1012E00086D0E86906F5987101EB80010A6895429D
:1012F0000AD124BB7268012303FA00F022EA00003D
:1013000070600020086073E731698F4214D3386938
:10131000A84214BF7C613C61002C3FF469AF316985
:101320008C42ADD3A761286958B1884226BF20619D
:10133000846100F0C1F904E000F0BEF9ECE70C6054
:10134000EDE7686900283FF453AF3169884297D3CD
:10135000606184614CE798F8040000F00300032802
:101360007FF446AFC6F8089049F00101D8F80400B0
:1013700040084000C8F8040069600AE070698045D0
:101380000AD1B16875618944C6F8089049F0010036
:10139000686045F8099064E1E408E400A144E408C9
:1013A000202C3AD2D8F80CA0D8F80870D04508BF45
:1013B00000F082F9B84508BF00F07EF9D8F80400C3
:1013C000C008C000B0EBC40F18BF00F075F906F1FB
:1013D000280000EBC400874207D031698F42C0F07B
:1013E0008880FA68424540F08480BA4507D1306869
:1013F000012101FA04F420EA040434607BE0824510
:1014000006D03069824574D3DAF80810414570D1AE
:10141000C7F80CA0CAF808706DE0D8F80C40D8F8EE
:10142000187044450DD0D8F808003169884223D39C
:10143000C268424504BFA16841451DD1C460A06097
:101440001CE008F114010C6834B908F110010C68B3
:10145000A4B101E011460C6804F1140210680028E0
:1014600002BF04F1100210680028F3D130698142F4
:1014700002D300220A6001E000F01EF9002F3AD0EA
:10148000D8F81C0006F5987101EB80010A689045B8
:101490000AD11CBB7268012303FA00F022EA0000A3
:1014A00070600020086026E031698F4213D33869EC
:1014B000404514BF7C613C61ECB131698C4218D36A
:1014C000A761D8F8100058B1884226BF2061846116
:1014D00000F0F2F804E000F0EFF8EDE70C60ECE764
:1014E000D8F8140038B13169884202D36061846150
:1014F00001E000F0E1F849F00100686045F809906A
:1015000071698D420BD1C6F80890AAE064086400A6
:10151000C8F8044049F00100686045F809904FEAB6
:10152000D907202F22D206F1280000EBC704A046DD
:10153000B9F1100F38BF00F0BFF8306820FA07F19A
:10154000CA0705D4012101FA07F70743376006E00F
:10155000A068316988422CBF804600F0ADF8A560D4
:10156000C8F80C50C5F80880EC607AE05FEA1920F2
:1015700008BF002123D0B0F5803F28BF1F211ED215
:10158000A0F58072120C02F008029040A0F5805184
:10159000090C01F004018840A0F580431B0CC2F146
:1015A0000E0203F00203521AD21A984002EBD03214
:1015B000D01D29FA00F101F0010101EB420106F50D
:1015C0009872002302EB8100E9616B612B61726804
:1015D00022FA01F3DC0707D4012303FA01F11143D6
:1015E00071600560A8611DE002681F291DBF4908E0
:1015F000C1F1190109FA01F1494600E002465068BB
:10160000C008C000484510D002F11003C80F03EB1A
:101610008003490018680028F0D13069834211D353
:101620001D60AA61ED60AD600EE0316990688A428C
:1016300028BF884206D3C5609560A860EA60002094
:10164000A86101E000F038F8306A401E08D130622D
:10165000D6F8C80100E080680028FCD14FF0FF30C8
:101660003062AFF30080BDE8F08700F025F8F8E7BE
:101670001809002038B5002558B141EA0002120CC3
:1016800001FB00F512041EBFB5FBF0F088424FF0DD
:10169000FF352846FEF7D2FD04001CBF14F8040CE9
:1016A00010F0030F03D02946204600F03BF82046F7
:1016B00032BD0000E0050020012000F049B830B440
:1016C000002513E050F8042BD30744BFA9F1010310
:1016D0009A18091F042942F8045BFAD213468C07B2
:1016E00044BF15809B1CC90748BF1D7050F8041BE0
:1016F0000029E7D130BC70470749086808B10020CD
:1017000070470648C008C00008600549C908C900FC
:10171000091A0160704700BF3C0900204F0D0020EE
:10172000480F0020002200F021B8B1F5807F02D3DD
:101730004FF0FF3070470170012070470A78026057
:10174000087800E00078401E8041C043C00F704719
:1017500080B500F03BF8024A11001820ABBEFBE751
:101760002600020062F30F2262F31F42401810F0BD
:10177000030308D0C91A1FD3DB0748BF00F8012DA7
:1017800028BF20F8022D130030B414461546103936
:1017900028BF20E93C00FAD8490728BF20E90C00FF
:1017A00048BF40F8042D890028BF20F8022D48BF0B
:1017B00000F8012D30BC7047C91818BF00F8012D82
:1017C000CB0728BF00F8012D70472E0010B500F0A0
:1017D00052F8020000230024E4431068A04203D022
:1017E00011000220ABBE13605068A04203D0111D4F
:1017F0000220ABBE536010BDF0B583B0040000F012
:101800003AF8A10047183D680026F643B54216D1C4
:1018100000F01AF83D68B5420FD100BF09A0009052
:10182000002C01D1002000E0042001900320029050
:1018300069460120ABBE05003D6000F014F82800A9
:1018400003B0F0BD3A7474000C480121BFF35F8F00
:10185000D0E84F3FC0E8421F002AF9D1BFF35F8FA5
:10186000002BF3D170470548BFF35F8F0021017053
:10187000BFF35F8F704702487047000040090020A7
:10188000F80200202DE9FE4F5FF0000632A40FF2AF
:1018900048390FF24C3A0FF2D40BDFF8788D00F094
:1018A00003F91F462DE000F04DFB29E0002FFAD18F
:1018B000584601F051FA00F0A5F9717800F0A3F94B
:1018C000B17800F0A0F9F17800F09DF9317900F0DD
:1018D0009AF9717900F052FA00F03FFCB17B00F008
:1018E00092F9F17B00F08FF9317C00F08CF9717C7A
:1018F00000F089F9B17C00F086F9F17C00F03EFA45
:101900002E469DF80100864223DA00F02AFF9DF85A
:1019100000000428F4D100F071F94E438119012F21
:1019200001F1A20612D1584601F016FA00F06AF948
:10193000717800F068F9B17800F065F9F17800F09D
:1019400062F9317900F05FF97179D7E7022FADD1F3
:10195000C2E7BDE8F78F0000577269746520436FD6
:101960006E66696720423A0A000000005772697487
:101970006520436F6E66696720413A0A00000000E7
:101980002DE9FE4F0024DFF8709C0FF6741A0FF259
:10199000502B0FF2E40800F087F81D463CE000F001
:1019A000D1FA38E0002DFAD1404601F0D5F9397866
:1019B00000F0D0FB797800F0CDFB00F0CAFBF9789D
:1019C00000F0C8FB397900F0C5FB797900F0C2FB63
:1019D000217800F018F961782BA001F0BDF900BF63
:1019E0002DA001F0B9F9B97B00F0B4FBF97B00F050
:1019F000B1FB397C00F0AEFB797C00F0ABFBB97C2D
:101A000000F0A8FBF97C00F0A5FB217800F0FBF8C2
:101A1000617800F0B3F934469DF80100844229DA78
:101A2000661C3146DFF8EC0B01F096F99DF80000DA
:101A30000428F0D100F0E2F84C432044012D00F5D9
:101A40009E7400F1A80712D1404601F085F939785B
:101A500000F080FB797800F07DFB00F07AFBF978EC
:101A600000F078FB397900F075FB7979CBE7022D2E
:101A700098D1B4E7BDE8F78F5265616420436F6E7B
:101A800066696720413A0A005045434572726F7299
:101A90003A25640A000000005265616420436F6EBD
:101AA00066696720423A0A008DF8010001918DF8BD
:101AB000002070472DE9FE4F0024DFF83C5B0FF655
:101AC000400A0FF21C1B0FF27C08DFF8489BFFF75F
:101AD000EBFF31E00FF23C2001F03EF92BE0661CF9
:101AE000314600F04BF99DF800000F28F2D1404636
:101AF00001F032F900F082F84C43044404F19C07F1
:101B00005846397801F028F9797800F023FB00F085
:101B100020FBF97800F01EFB397900F01BFB797986
:101B200000F018FB04F59E745046217801F014F97A
:101B3000A17B00F0A5FA34469DF801008442CEDB7B
:101B4000BDE8F78F5265616420446576696365205E
:101B50005349443A0A0000002DE9FE4F144600257F
:101B60000FF2E8360FF2700B0FF274080FF27809DB
:101B7000DFF8A0AA8DF80000019126E0304601F0C0
:101B8000EBF821E06F1C394600F03DF80E2CF5D142
:101B9000484601F0E1F800F031F84D43411901F5F4
:101BA00090754046297801F0D7F8697800F0DBFDA0
:101BB000A97800F0D8FDE97800F0D5FD297900F08A
:101BC000D2FD697900F0C6FA3D469DF800008542D5
:101BD000D8DBBDE8F78F0000307825580A0A0000EE
:101BE000307825582C200000577269746520436FA7
:101BF0006D6D20446174613A0A00000001984FF451
:101C0000A67170473178504601F0A6B82DE9FE4F15
:101C10000FF2B0032FA40FF2C8090FF2D40A0FF28B
:101C2000E00BDFF8F0890193002600F0A6FD43E009
:101C300038A001F091F83EE000F093FD9DF800001F
:101C40000E28F5D1584601F087F802984FF4A67196
:101C50004E43861906F193075046F97801F07CF857
:101C6000397900F08BF87979204601F075F83978E8
:101C7000019801F071F879782DA001F06DF8B9782C
:101C80002FA001F069F8B97930A001F065F8F97971
:101C900032A001F061F8397A34A001F05DF806F560
:101CA0009E760FF25C60317801F056F8317B0FF6CA
:101CB000604001F051F82E469DF801008642BBDBE2
:101CC000BDE8F78F46434F4D303A307825582C20E9
:101CD0000000000049434F4D323A307825580A0041
:101CE00049434F4D313A307825582C2000000000F0
:101CF00049434F4D303A307825582C2000000000E1
:101D00005265616420436F6D6D20446174613A0ACD
:101D10000000000057726F6E672052656769737428
:101D2000657220547970652053656C6563740A0090
:101D300046434F4D313A307825582C2000000000A2
:101D400046434F4D323A307825580A0044415441B9
:101D5000303A307825582C2000000000444154418E
:101D6000313A307825582C2000000000444154417D
:101D7000323A307825580A0001980178484600F038
:101D8000EBBF00002DE9F84F2DED028B82B000F083
:101D9000C0F90FF6A8390FF698380FF6843400F022
:101DA000AFF99FEDB28B019120E000F067F900F0F0
:101DB000D4F900F0B4F9B86900F05CF900F0A5F9C5
:101DC00000F0DEFF01F010F800F0B3F9F86900F060
:101DD00051F900F09AF900F0D3FF01F005F800F096
:101DE000ADF900F0B0F900F0B4F9374600F09DF914
:101DF000DBDBF7E02DE9F04F14460026220085B02A
:101E000008BF0C2503D0012C14BF022C0625029616
:101E10008DF800000491A5F1010A0FF65C380FF26D
:101E2000E04905E0B5A000F097FF0298401C029041
:101E300002989DF8001088427BDA411C0FF60830AA
:101E400000F08AFF029A04994FF4A6704243881862
:101E50000390002700F59E70019014E000F072F8E6
:101E600010E0022CFAD153EC102B791C0FF6243021
:101E700000F072FF574505D1FFF77EFF0198C17A48
:101E800000F071FC7F1CAF42CCDA039800EB4700F6
:101E9000210008BFB0F844B008D0012C08BFB0F84A
:101EA0005CB003D0022C08BFB0F868B00FFA8BF01A
:101EB00000F0BEFF00F0D4F800F062FF00F094FFE5
:101EC00041EC100B20001ED1082F03D100F034F894
:101ED0000126D7E7681E87420AD153EC102B0FF674
:101EE000842000F039FFFFF747FF0198417AC7E7E8
:101EF000300053EC102B0CBF791C39460FF68420B0
:101F000000F02AFFBEE7012CABD1042F02D100F074
:101F100013F8B7E7574553EC102B08D10FF64420C0
:101F200000F01AFFFFF728FF0198817AA8E7F91D52
:101F3000E4E705B0BDE8F08F53EC102B0FF610204E
:101F400000F00ABF01A000F007BF000057726F6EDB
:101F5000672052656769737465722047726F757088
:101F60002053656C6563740A000000002DE9F84F8A
:101F70002DED028B82B000F0CCF80FF640290FF661
:101F80002C280FF61C2400F0BBF89FEDB38B0191B9
:101F900025E000F073F800F0E0F8FFF72FFE4F4364
:101FA0000744B7F9280000F043FF00F0AEF800F056
:101FB000E7FE00F019FF00F0BCF8B7F92A0000F0C6
:101FC00037FF00F0A2F800F0DBFE00F00DFF00F09C
:101FD000B5F800F0B8F8F97800F0BCF8374600F032
:101FE000A4F8D6DB02B0BDEC028BBDE8F18F2DE981
:101FF000FE4F00F08EF80FF6E4190FF634180FF6C6
:10200000CC1400F0E9F826E000F038F800F0A5F86C
:1020100000F085F8786B00F02DF8DFF8BC28DFF8C9
:10202000BC3800F017FF00F0ABFE00F0DDFE00F062
:1020300080F8B7F9380000F0FBFE00F011F800F06E
:102040009FFE00F0D1FE00F079F800F07CF83979BD
:1020500000F080F8374600F068F8D5DBBDE8F78F70
:10206000DFF87C28DFF87C3800F0F4BE8DEDB5A0F9
:10207000F7C6B03E8003801300F0DABE7E1C314606
:10208000284600F069BE00002DE9F84F2DED028BC7
:1020900082B000F03EF80FF670190FF65C180FF6DC
:1020A000481400F02DF89FED928B019121E0FFF78D
:1020B000E5FF00F052F800F032F8F86A00F0D0F8CE
:1020C00000F023F800F05CFE00F08EFE00F031F826
:1020D000386B00F0C5F800F018F800F051FE00F081
:1020E00083FE00F02BF800F02EF8F97900F032F8BA
:1020F000374600F01AF8DADB74E700000A0A00003D
:102100000FF604058DF80000704753EC182B00F013
:10211000A1BE00270FF2F87B0FF2E41A7047019876
:102120004FF4A6714F43074470479DF80000874263
:10213000704702460B46404600F00EBE02460B4674
:10214000484600F009BE07F59E775046397800F002
:1021500003BEB978584600F0FFBD204600F0FCBD34
:102160002DE9FE4FFFF7D5FF0FF6CC090FF6B808A3
:102170000FF6A40400F030F829E0FFF77FFFFFF727
:10218000ECFFFFF7CCFFF86B00F06AF8DFF84827A8
:10219000DFF8543700F05EFE00F0F2FD00F024FEA0
:1021A000FFF7C7FF386C00F05BF8DFF83427DFF883
:1021B0003C3700F04FFE00F0E3FD00F015FEFFF7A6
:1021C000BDFFFFF7C0FF397AFFF7C4FF3746FFF7BF
:1021D000ACFFD2DBBDE8F78F0FF22C758DF8000055
:1021E000019170472DE9F84F2DED028B82B0FFF77A
:1021F00090FF0FF660090FF630080FF64804FFF75E
:102200007FFF9FED3D8B019121E0FFF737FFFFF747
:10221000A4FFFFF784FF386A00F022F8FFF775FF8C
:1022200000F0AEFD00F0E0FDFFF783FF786A00F0FC
:1022300017F8FFF76AFF00F0A3FD00F0D5FDFFF7E8
:102240007DFFFFF780FFB979FFF784FF3746FFF77F
:102250006CFFDADBC6E600002D431CEBE2361A3FCA
:102260000002001200F0E4BD2DE9F84F2DED028BC5
:1022700082B000250FF2986B0FF2840A0FF6000966
:102280000FF2EC780FF2DC748DF800009FEDE28B1A
:10229000019127E0FFF761FFFFF7B0FC69434618A3
:1022A00006F1740706F59E7697F9000000F028FB0A
:1022B000FFF72BFF00F064FD00F096FDFFF739FFFC
:1022C00097F9010000F01CFBFFF71FFF00F058FD1D
:1022D00000F08AFDFFF732FFFFF794FC7179FFF7FA
:1022E00039FF6D1C9DF800008542D3DB7AE60000C3
:1022F0002D431CEBE236EA3E8DEDB5A0F7C6803EDD
:1023000043436F756E743A25642C00002DE9F84F35
:102310002DED088B84B00FF294770FF2F4580FF282
:10232000A4790FF2787B0FF2687A019700269FED6F
:10233000B38B9FEDB49B9FEDB5AB9FEDB9BB00F0A8
:102340001CFA1C46A5E0FFF7FDFDA1E0002CFAD128
:10235000504600F001FDB7F9000000F069FD00F003
:1023600077F900F00DFD00F03FFD00F066F9788888
:1023700000F042FE53EC1A2B00F06CFD00F054F913
:1023800000F035F953EC182B00F044FE00F050F942
:10239000B7F9040000F04CFD00F05AF900F0F0FC31
:1023A00000F022FD00F040F900F04CF90FF220702F
:1023B00000F0D2FC00F05AF900F053F900F04CF9AB
:1023C000797A0FF2487000F0C7FC0FF2507000F0FD
:1023D000C3FC00F0CBF900F0B7F900F0AEF900F063
:1023E000A5F900F09CF900F093F900F08AF900F0EB
:1023F00081F900F078F900F06FF900F0ACF9B97BE1
:102400000FF2C07000F0B5F900F05FF900F056F976
:1024100000F04DF900F044F900F03BF900F032F91A
:10242000B97B0FF6080000F099F9F97B0FF60C0064
:1024300000F09FF900F01FF900F0D3F800F08CFCD9
:102440000FF6240000F088FC397C0FF66C0000F0D9
:1024500083FC0FF6300000F07FFC797C0FF6300033
:1024600001F00F0100F078FCB97C0FF6300001F0AC
:102470003F0100F071FCF97C0FF62C0001F00F0118
:1024800000F06AFC3178FFF779FC717B00F06BF9A2
:102490002E469DF80100864280F29E80751C2946DA
:1024A0000FF2644000F058FC9DF800000C28EFD1BA
:1024B00002984FF4A6714E433044012C00F59E76ED
:1024C00000F176072ED1504600F046FCB7F9000027
:1024D00000F0AEFC00F0BCF800F052FC00F084FC10
:1024E00000F0ABF8788800F087FD53EC1A2B00F071
:1024F000B1FC00F099F800F07AF853EC182B00F0DA
:1025000089FD00F095F8B7F9040000F091FC00F0A7
:102510009FF800F035FC00F067FC00F085F800F053
:1025200091F8AFE7022C0DD10FF2A45000F014FC8B
:1025300000F09CF800F095F800F08EF8797A0FF230
:10254000CC509DE7032C39D10FF2D05000F004FCA1
:1025500000F00CF900F0F8F800F0EFF800F0E6F801
:1025600000F0DDF800F0D4F800F0CBF800F0C2F88D
:1025700000F0B9F800F0B0F800F0EDF8B97B0FF218
:10258000446000F0F6F800F0A0F800F097F800F0D2
:102590008EF800F085F800F07CF800F073F8B97B55
:1025A0000FF2886000F0DAF8F97B0FF2906000F02B
:1025B000E0F800F060F800F014F861E7042C07D1AF
:1025C0000FF2A46000F0C8FB397C0FF2A86057E757
:1025D000052C7FF4BBAE3CE704B0BDEC088BBDE836
:1025E000F18FF87BC0F380010FF26C607047C04A36
:1025F000C04B00F0CDBD0000102900080000000015
:10260000001071C0000000000000F83F613255303A
:102610002AA9233F082900087B14AE47E17A743FBA
:102620002D431CEBE2361A3F53EC192B00F0F2BCA1
:10263000024601980B4600F08FBB02460B465846F7
:1026400000F08ABB02460B460FF26C4000F084BBE0
:1026500053EC1B2B00F0FEBB397A0FF2A04000F0C8
:102660007BBBF9790FF2844000F076BBB9790FF2A9
:102670006C4000F071BBF87BC0F340010FF2C85012
:1026800000F06ABBB87BC0F380110FF2905000F0ED
:1026900063BBB87BC0F340110FF2705000F05CBB1D
:1026A000B87BC0F300110FF2585000F055BBB87B57
:1026B000C0F3C0010FF23C5000F04EBBB87BC0F33A
:1026C00080010FF2205000F047BBB87BC0F34001FF
:1026D0000FF2005000F040BB787BC0F380110FF286
:1026E000C44000F039BB787BC0F340110FF2A44026
:1026F00000F032BB787BC0F300110FF28C4000F089
:102700002BBB787BC0F3C0010FF26C4000F024BB00
:10271000B87AC0F301110FF2544000F01DBBB98923
:102720000FF23C40C1F30A0100F016BBB87AC0F3C7
:10273000C0010FF21C4000F00FBBB87AC0F380015B
:102740000FF2004000F008BBB87AC0F340010FF26E
:10275000E43000F001BB797B0FF25840C90900F06A
:10276000FBBA751C2946404600F0F6BAB97A0FF25A
:10277000B83001F0010100F0EFBA8DF801000291CC
:102780008DF80020704710B50FF23C505A4C00F005
:10279000E3FAFFF7E2FC04F1640000F0DDFA04F173
:1027A000C80000F0D9FA04F5967000F0D5FA04F5E7
:1027B000C87000F0D1FA04F5FA7000F0CDFA04F513
:1027C000167000F0C9FA04F52F7000F0C5FA04F590
:1027D000487000F0C1FA04F5617000F0BDFA04F52C
:1027E0007A7000F0B9FA04F24C4000F0B5FA04F542
:1027F000966000F0B1FA04F2145000F0ADFA04F55E
:10280000AF6000F0A9FA04F2DC5000F0A5FA04F57C
:10281000C86000F0A1FA04F2A46000F09DFA04F58B
:10282000E16000F099FA04F26C7000F095FA04F59A
:10283000FA6000F091FA04F6340000F08DFA04F624
:10284000980000F089FA04F6FC0000F085FA04F51F
:10285000166000F081FA1DA000F07EFA0FF28440AD
:1028600000F07AFA0FF2904000F076FABDE81040DE
:1028700017A000F071BA01460FF2944000F06CBA54
:1028800080B500F0D5FA00221C4B00F081FC00F06E
:1028900077FA00F0A9FA0B46BDE8024002460FF2B3
:1028A000784000F059BA411C0FF2884000F054BA49
:1028B00010B50446214607A000F08EFD21680FF2F6
:1028C0008840BDE8104000F047BA00000A00000050
:1028D0000A0A0000256400008DEDB5A0F7C6B03EE1
:1028E0002D431CEBE2361A3FF7C6803EE236EA3E45
:1028F000B81E85EB51B87E3FE0B300080040EF40C2
:102900004006401600F094BA494325643A0A000094
:102910005045434572726F723A25640A0A000000FE
:10292000526561642043757272656E743A0A0000E4
:1029300049313A25666D562C2000000049323A256F
:10294000666D560A00000000494325643A200A00DB
:10295000565245463241203D2025372E34665620BA
:102960000A000000565245463242203D2025372EAF
:10297000346656200A0000005045434572726F725B
:102980003A25640056253264203D2025372E3466D2
:1029900056200A00562564523D256656200A00003E
:1029A0005265616420564241543A0A0056424154ED
:1029B000313A202566562C20000000005642415432
:1029C000323A202566562C200000000052656164D2
:1029D0002049564241543A0A0000000056424154F0
:1029E000312566562C2000005265616420417667CF
:1029F000566261743A0A00005642314156473A2500
:102A000066562C20000000005642324156473A25B7
:102A100066562C20000000005265616420417667F4
:102A200049566261743A0A0049314156473A25666F
:102A30006D562C2000000000564231415647256655
:102A4000562C2000526561642041766743723A0A31
:102A50000000000049324156473A25666D562C2049
:102A60000000000052656164204F43523A0A0000A2
:102A70004F4331523A2025666D562C20000000004D
:102A80004F4332523A2025666D562C20000000003C
:102A900053746174757320413A0A000056524546DA
:102AA000315032353A2566562C20000049544D509D
:102AB0003A2566B0432C200056524547323A2566E7
:102AC000560A000043436F756E743A25642C20004B
:102AD00053746174757320423A0A00004F43314DBC
:102AE000494E3A307825582C200000004F43314D94
:102AF00041583A307825582C200000004F43324D81
:102B0000494E3A307825582C200000004F43324D72
:102B100041583A307825580A000000005374617417
:102B2000757320433A0A00004F4331413A3078250B
:102B3000582C20007E4F4331413A307825582C20C4
:102B4000000000004F4332413A307825582C2000D5
:102B50007E4F4332413A307825582C200000000047
:102B600043543A307825582C200000004354533AFF
:102B7000307825580A00000056415F4F563A3078A9
:102B800025582C200000000056415F55563A3078F9
:102B90002558200056445F4F563A307825582C204F
:102BA0000000000056445F55563A307825582C20D6
:102BB000000000004F5450315F45443A30782558AA
:102BC0002C2000004F5450315F4D45443A30782559
:102BD000582C20004F5450325F45443A30782558E5
:102BE0002C2000004F5450325F4D45443A30782538
:102BF000580A00005644453A307825582C200000E9
:102C0000564445313A307825582C2000494E5359C6
:102C10004E433A307825582C200000005350494646
:102C20004C543A307825582C20000000534C454530
:102C3000503A307825582C20000000005448534466
:102C40003A307825582C2000544D4F4443484B3A95
:102C5000307825582C2000004F534343484B3A30DE
:102C60007825580A0000000053746174757320447D
:102C70003A0A00004F435F434E54523A3078255889
:102C80002C20000053746174757320453A0A0000CB
:102C90004750494F3A307825582C200047504F3A3A
:102CA000307825582C2000005245565F49443A3070
:102CB0007825580A000000004F435F434E54523AB3
:102CC000307825580A0000004C697374206F662024
:102CD0004144424D533239353020436F6D6D616E42
:102CE000643A0A005072696E742027302720666F9C
:102CF00072206D656E750A00506C656173652065A4
:102D00006E74657220636F6D6D616E643A200A00A7
:102D100025730A0A0000000041646320436F6E7649
:102D2000657273696F6E2054696D65203D2025665C
:102D30006D730A00526573756C7420436F756E7401
:102D40003A25640A00000000456E74657220636DC8
:102D5000643A25640A0000000EB4C0B5024603A818
:102D600000210190009101AB0121044878440C300E
:102D700000F044FB06BC5DF810FB00BFD59A0000D4
:102D800001F000428B1AA3F16051B1F5801F0ADBFC
:102D9000B1F17F6F1FD242EAC102C10071F100415F
:102DA00042EB507070470B15C3F10903212B10D271
:102DB000890241EA905180020128494141F00041D5
:102DC00021FA03F0C3F12003994071F10041504111
:102DD0007047100070476FF0000013EB103F5CBFAE
:102DE000000E42EAC0507047C0F3C75181B1FF29BD
:102DF00006D0C110400721F0E04101F16051704759
:102E000041020CBF40F4E0016FF000410020704728
:102E100000F0004100020AD0B0FA80FC00FA0CF089
:102E200001F16051A1EB0C5101EBD021400570473D
:102E3000C11768B14840401AB0FA80F29040D21CE5
:102E4000C907C2F5846241EA025202EBD021400573
:102E500070474300B0B581EA030C0CF0004C40F21F
:102E6000FF7515EA11541DBF15EA1357AC42AF4266
:102E700039E0E41923EA455343F48013C90241F0D1
:102E8000004141EA505EC7021100A7FB0202002880
:102E90004FF00000EEFB01204FF00001E3FB0721A3
:102EA00018BF42F00102401800214941E3FB0E0126
:102EB000A4F580640F0302D252004041494154F10D
:102EC00001046CDD470872F1004250F1000051EB43
:102ED0000451A1F580115CBF41EA0C01B0BD4CEA80
:102EE00005510020B0BD05EA1357AC4214BFAF42F4
:102EF00041E050EA410E1CBF52EA430E02E0614637
:102F00000020B0BD24423C441BD15FEA070EF6D03E
:102F1000090302BF01460020AEF1140EB1FA81F799
:102F2000AEEB070401FA07FE0C37C7F1200100FAE7
:102F300007F7C8404EEA000E23EA455343F48013D6
:102F4000A2E733F00043B3FA83F704BFB2FA82FE7C
:102F500077440B3FE41BB7F1200E2FBF02FA0EF3AC
:102F6000BB40C7F1200E22FA0EFE38BF43EA0E0323
:102F7000BA40641C82E750EA410E14BF52EA430E85
:102F80006FF000014FF4001717EB430F8ABF19468B
:102F900017EB410FB5E74CEA05510020B0BDD4F165
:102FA0000104B4F120070FDAC4F12007520828BF4A
:102FB00042F0010210FA07F501FA07F7E1BF2A43D0
:102FC000E0403843E1400FE0352C98DCC7F12004A5
:102FD00052EA400220FA07F218BF42F0010231FA29
:102FE00007F0A1400A43002172F1004250F10000B5
:102FF00051EB0C01B0BD0000014648B1B0FA80F1C0
:103000008840C91CC1F58461090501EBD021400548
:103010007047000070B44FF0004591EA030F41F192
:1030200059826B40841A71EB030604D26E40001B78
:10303000B141121973414FF4001C1CEB410F34BF16
:103040007CEB430683E00C0DA4EB1356362E00F305
:103050007C80012E45EAC32341DC43EA525312BF70
:10306000D20292025B08240545EAC12141EA50518F
:10307000D2EBC020994125D407D1B0FA80F610FADE
:1030800006F162D00020203608E0B1FA81F6B140A6
:10309000C6F1200220FA02F21143B0404FEAF47464
:1030A000B4EB465434F001064FEA74040AD8D6F55E
:1030B0000016760D04F00044F04061FA06F250402C
:1030C000F1404840C00A40EA415021F0004128BF89
:1030D0005FEA500550F1000044EBD12135E0DB0AF6
:1030E00045EAC121C90AB6F120050EDD42EA0242D5
:1030F000120CC5F1200603FA06F6EB4042EA06057B
:103100006D42984161F100010DE062FA06F5F2406E
:10311000554063FA06FC82EA0C02F3405A406D42C5
:10312000904161EB030111F4801F05D1641E62051B
:1031300002D06D004041494121F48011430875F1EE
:10314000004350F1000041EB045170BC70471CEB90
:10315000410F15D223F0004352EA43060BD04FEA49
:103160004C0CBCEB410F04D80C0D661E342EB7DDA1
:10317000EBE7801A994150EA410608BF0021E4E7D5
:1031800008BF1CEB430F28BF6FF00001DDE7000014
:10319000F0B540F2FF7581EA030C0CF0004C15EA23
:1031A00011541DBF15EA1357AC42AF42E5E0BC41D4
:1031B000C1F31301C3F31303801A994143F480133D
:1031C00004D2641E4000494180185941C90241EAB5
:1031D0005051B1FBF3F603FB1611A2FB0675D7EBBA
:1031E000C020A94102D2761E80185941C90241EA85
:1031F0005051B1FBF3FE03FB1E11A2FB0E75D7EB82
:10320000C020A94103D2AEF1010E801859418902B4
:1032100041EA9051760546EA8E2EB1FBF3F603FBA8
:103220001611A2FB0675D7EB8020A94102D2761EAB
:1032300080185941C90241EA50514EEA060EB1FBCD
:10324000F3F603FB1611A2FB0675D7EBC020A941CC
:1032500002D2761E80185941C90241EA5051B1FB91
:10326000F3F703FB1711A2FB0735D3EBC020A941ED
:1032700067F100070CBF004247F0010766F3D5274E
:103280004FEA1E31B80814F5806412DDBD0775F1F0
:10329000004250EB0E5051EB045111F5801F5CBF02
:1032A00041EA0C01F0BD4CF07F6141F0E0410020AB
:1032B000F0BDBD076D0840EA0E5041F48011D4F115
:1032C0000104B4F120060ADAC4F120060200E0404D
:1032D00001FA06F3E1401843B24015430EE0342CE6
:1032E00013DCC6F1200445EA40056D0820FA06F219
:1032F000154321FA06F0A1400D43002175F100426B
:1033000050F1000051EB0C01F0BD00205FEA0C0110
:10331000F0BDCFB992185B41B3FA83F704BFB2FA9C
:1033200082F6BF190B3FB7F120062FBF02FA06F352
:10333000BB40C7F1200622FA06F638BF3343BA4035
:103340001CB1E419641E33E77F4231F00041B1FA49
:1033500081F404BFB0FA80F6A4190B3CB4F1200646
:103360002FBF00FA06F1A140C4F1200620FA06F6AC
:1033700038BF3143A0403C1B1AE7AC421ABF05EAF4
:103380001357AF4212E050EA41061CBF52EA43060F
:10339000BFE750EA4107304661461CBF41EA05518C
:1033A000F0BD52EA430C08BFC143F0BD00204FF40A
:1033B000001616EB410F98BF16EB430F08BF16EB34
:1033C000410F24BFC14305E016EB430F0CBF61461C
:1033D0004CEA0551F0BD00000EB4C0B5024603A88A
:1033E00001900021009101AB034878440A3001F0BC
:1033F00003F906BC5DF810FB9D9400002DE9F14F28
:10340000B2B09946924600230691CDE900333C9A2A
:103410000F930DF14A0114914A7011E0329E574604
:103420002C4617F8011B0698B0470028069000F0BC
:1034300026810F98401C641E0F90F2D13296AA4448
:103440009AF80000252808D10021002209910A924B
:103450000B910C920D910E920FE06A464FF0FF31E6
:10346000504602F0AAF8050002D10F9800F066BE9F
:10347000D4D50125E3E741F001011AF8010F202816
:10348000F9D023280CD02B2804D02D2805D03028A3
:1034900009D00BE041F00201EFE741F00401ECE755
:1034A00041F00801E9E741F01001E6E72A280FD1D1
:1034B000D9F8002052F8040BC9F800200028119018
:1034C00003D54042119041F004010AF1010A14E0D1
:1034D0001192DFF8EC3B0AE01198984205DA00EB14
:1034E000800402EB4402303A11920AF1010A9AF880
:1034F0000020A2F130000A28EED39AF800002E280E
:1035000003D04FF0FF32109229E01AF8010F2A2859
:1035100009D1D9F8000050F8042BC9F80000109226
:103520000AF1010A1BE02D280CBF0AF1010A002054
:1035300000221092DFF8882B0BE040B9109B9342D9
:1035400005DA03EB830504EB4504303C10940AF1E3
:10355000010A9AF80040A4F130030A2BEDD3ADF82C
:1035600048100FF660309AF8001002F037F808B1F2
:103570001AF8010B8DF84A009DF84A00682805D119
:103580009AF8000068280CD1622106E06C2804BF7C
:103590009AF800006C2804D171218DF84A100AF1C4
:1035A000010A1FA808901AF801BBBBF125012DD014
:1035B0001C3900F06181091F022940F25D810E393A
:1035C0002AD0491F00F0B284093900F05581891EC4
:1035D00000F04885491E00F0F484491E022940F29B
:1035E0004B81091F00F0ED84491F00F0BA80491E8D
:1035F00000F09C84491E65D0C91E21D0891E00F0B0
:103600009584C91E00F0928400F04BBD25238DF8EF
:103610007C30012109912AE06C208DF84A00D9F80C
:10362000000050F8042BC9F80000002A43D1149977
:10363000487800283DD04FF0FF340FF6902012E07C
:103640009DF84A006C28EAD0D9F8000050F8044BE5
:10365000C9F800000794D4B91499487898B14FF08C
:10366000FF340FF6842001F0C5FF201A07D13298ED
:103670001FAA04A900F065FD00287FF5E1AE4FF018
:10368000FF3000F05BBD0FF67C200790EFE7109D48
:10369000002D04D5204601F0CDFF044607E02A4660
:1036A000204601F0E3FF002814BF041B2C460A94B7
:1036B000DDE70FF65422329804A900F0C8FD002877
:1036C000D5D5DCE7D9F8001051F8040BC9F8001083
:1036D00020F00004002121F0FF351FABCDE90445A7
:1036E0000793DDE9042308993C2413B90AB910981B
:1036F00098B102F00F053035641EEEB23A2EA8BF25
:103700002735120942EA03721B090D5508BF002A2A
:1037100003D007980D19A842EBD308190790C4F1FC
:103720003C0210980A92824209DABDF84810821AC7
:103730004FF6EF7001400C92ADF8481097E7002863
:1037400095D59DF8480000F0140010288FD1119BEA
:1037500009990C985B1A1B1A9A1A002A87DD0C9299
:1037600085E71499487820B14FF0FF340FF69C108C
:1037700079E79DF84A00622862D0682819D06A2843
:1037800040D06C2806D071284DD074282DD07A28CE
:103790001ED064E0D9F8001051F8040BC9F80010ED
:1037A00020B94FF0FF340FF67C105CE70F990160F1
:1037B0005DE7D9F8001051F8040BC9F8001020B9E2
:1037C0004FF0FF340FF65C104DE70F9901804EE784
:1037D000D9F8001051F8040BC9F800100028E5D101
:1037E0004FF0FF340FF63C103DE7D9F8001051F8C8
:1037F000040BC9F800100028D8D14FF0FF340FF6A1
:10380000241030E7D9F8001051F8040BC9F8001063
:1038100020B94FF0FF340FF60C1024E70F9AD3179E
:10382000C0E9002323E7D9F8001051F8040BC9F8C8
:1038300000100028F2D14FF0FF340FF6E80012E735
:10384000D9F8001051F8040BC9F8001020B94FF056
:10385000FF340FF6D00006E70F99017007E7D9F89B
:10386000001051F8040BC9F8001000289ED14FF049
:10387000FF340FF6B000F6E6D9F80020D21D22F092
:103880000702C9F80020D2E900010832C9F8002077
:10389000CDE90401C80F02D009982D210AE0BDF836
:1038A0004800810702D509982B2103E0C00705D500
:1038B000099820211FAA1154401C09901FA809999A
:1038C0004BF020024318DDE90401CDE92E01612A05
:1038D000079315AC0BD01098002802D50620109045
:1038E00005E001BF4BF02000672801211091DDE9C0
:1038F000040148004015401C0A4611D109030FD0AD
:10390000ABF1610503201A2D0A9002D20FF6A03107
:1039100001E00FF6A0310322184601F0D3FEA6E61F
:1039200050B9120308D1ABF1610503201A2D0A909A
:1039300016D30FF68831EEE7DDE90401CDE9300159
:10394000DDE9302323F00047B7F5801F22F00006A1
:103950000DD20022002F08BF002E029203D116E0E4
:103960000FF65431D7E702AA01F0B8FE0FE0DFF8F6
:10397000F00ADFF8F01A00EB17500290DDE930236F
:103980004FF0FF301940DFF8E07A10403943CDE9BD
:1039900004014BF0200061280DD1079830210170FF
:1039A000821CBBF1610F07920CBF78215821417036
:1039B0000998801C0990DDE9040120F0000231F033
:1039C000004308BF002A02D10026002571E14BF018
:1039D0002008B8F1610F40F0BE801098002847BF62
:1039E00021210391401C0390039FDDE92E017F1CE0
:1039F00000220023DDE9044501F0A8FE02998DF8BC
:103A0000542038BF85F00045091F002F02910DF1A9
:103A100055065DDDDFF8541ACDE9302140F2FF7321
:103A20002E93204629460022002301F0A7FE4FD204
:103A30004800400D00F11C0315D0002B13DD2E981B
:103A400083420ADBDDE9300121F0004005F000424D
:103A50000243DDE93001114611E06FF31E5141EAE6
:103A6000035120460BE024F0000035F0004108BF70
:103A700000280FBF29461C22294601F097FE044664
:103A80000D4601F031FFFF1F002F804609DDFFF7D3
:103A9000CFF902460B462046294600F013FD0446A6
:103AA0000D46F01D0721B8F1000F0CDD491E5EBF69
:103AB00008F00F0200F8012D4FEA2818F3D502E0B4
:103AC000002200F8012D491EFAD5C61D002FA8DCE2
:103AD0000DF15500361A03988642D8BF30460028AB
:103AE0000DF1550430D4B04206DA0DF155010A5CEF
:103AF000082AA8BF0F2100DA0021024615AB1344A3
:103B000000E0401E13F80159521E8D42F9D00F29D2
:103B100004D10DF155018B5C5B1C8B54002A04D53C
:103B20000299091D15AC401C0291411E0CD462186B
:103B3000ABF13A0613783033DDB23A2DA8BFF31853
:103B4000491E02F80139F5D51099002940F1AF80DE
:103B5000421E1092ABE00299DFF8142947F2975009
:103B6000414391FBF2F2DDE92E45029225F000453A
:103B7000D2F1070204DD2046294600F04DFC0BE09F
:103B800052420020DFF8EC1800F046FC02460B46DB
:103B900020462946FFF7FCFA0446B8F1660F109854
:103BA00006BF029F0A3706273F18142FC8BF1427E5
:103BB00030208DF854000D460020DFF8BC18CDE908
:103BC0002E010DF15506002F33DD2046294601F068
:103BD000A9FE01460A4606F1080304200A26B2FBA4
:103BE000F6F606EB860EA2EB4E02303203F8012CFD
:103BF0000A22B6FBF2F202EB820EA6EB4E0630363C
:103C0000401E03F8026DE9D1083F002F03F10806BA
:103C1000D9DD0846FFF7F0F902460B462046294653
:103C200000F050FCDDE92E23FFF714F904460D46A1
:103C3000CBE70DF15500361A0DF1550404E002985A
:103C4000401E761E0290641C20783028F7D0B8F110
:103C5000660F02D10299491C04E0B8F1650F0CBF50
:103C600001210021109808188642B8BF701E002854
:103C70001DD4B04204DA215C3429C8BF392100DCEC
:103C800030210246631E9D1800E0401E15F80169B0
:103C9000521E8E42F9D0392902D1A15C491CA1548F
:103CA000002A04D50299491C1C46401C0291064674
:103CB000029D01F08CFC406A0778DDF8408030B24C
:103CC000002802DC01260FF2F8744BF02000662871
:103CD00008BF6D1C16D0672846D128B210F1040F1A
:103CE00048DB404546DA9DF848006D1C010703D4C7
:103CF00030B24045B8BF804628B2B8EB000848BF94
:103D00004FF000080FFA85FB07980A99BBF1000FE6
:103D100000F3B2804A1C0A9230234354B8F1000FDA
:103D200003DC9DF84800010704D50A98411C0A915C
:103D300007990F5418EB0B0FB8BFC8F100052DB24F
:103D400068420D90A84432B29045B8BF4646079BE2
:103D50000A9836B20B9632462146184401F0B2FC5E
:103D6000A8EB06000E90CBE0BBF1610F17D14FF02E
:103D7000700B19E030B2404504DA9DF848100A078C
:103D800058BF8046B8F1010848BF4FF00008BBF1AA
:103D9000670F14BF4FF0450B4FF0650B04E0BBF10C
:103DA000410F08BF4FF0500B0A98411C0A91B8F11F
:103DB000000F079914F8012B0A5403DC9DF8480002
:103DC00001071AD50A98411C0A91B8F1000F07990A
:103DD0000F5412DD761E30B2804507980A9BB8BF9B
:103DE000464632B22146184401F06CFC0A9936B2BC
:103DF00071180A91A8EB06000D9007980A990844DB
:103E00002AB2002A80F800B003D42B224270811C11
:103E100004E02D2141701546811C6D4200202EAA20
:103E20000A2409E02B4693FBF4F505EB8506A3EB8A
:103E3000460302F8013B401C2DB2002DF2DC0128A4
:103E400006DC4BF02002652A04BF302201F8012B6A
:103E500000282EAA08D1302001F8010B06E0401EF0
:103E6000135C303301F8013B0028F8DC079A0A980C
:103E70001044091A0B9143E0084431B22AB291422E
:103E800019DA32B2214601F01DFC0A9936B27118D6
:103E9000ABEB0606B8F1000F0A910D9603DC9DF816
:103EA0004800020704D5079847540B99491C0B9109
:103EB000CDF8388024E0214601F004FC0A98761BF6
:103EC0005844B8F1000F0A9003DC9DF848100A0727
:103ED00003D5411C0A9107990F5430B280450798C9
:103EE0000A9BB8BF464632B204EB0B01184401F0FE
:103EF000E9FB0A9836B230180A90A8EB06000D903C
:103F00009DF8480000F0140010287FF4B0AB099A27
:103F10000A990D988A180B9982180E988A18821897
:103F200011988242BFF6A3AB821A18E49DF84A00AA
:103F3000622808D068280ED06A2814D06C281FD0B8
:103F4000712810D01CE0D9F8001051F8040BC9F802
:103F50000010C0B21AE0D9F8001051F8040BC9F8EB
:103F6000001080B212E0D9F80020D21D22F0070222
:103F7000C9F80020D2E900010832C9F8002006E0A3
:103F8000D9F8001051F8040BC9F800100021CDE950
:103F900004019DF8480001075AD5DDE90423002BF0
:103FA00008BF002A54D04BF02000782850D109983F
:103FB0001FA930220A54401C431C099301F800B089
:103FC00046E09DF84A00622808D068280ED06A288A
:103FD00014D06C281FD0712810D01CE0D9F8001024
:103FE00051F8040BC9F8001040B21AE0D9F80010DB
:103FF00051F8040BC9F8001000B212E0D9F8002003
:10400000D21D22F00702C9F80020D2E900010832CF
:10401000C9F8002006E0D9F8001051F8040BC9F8DF
:104020000010C117CDE90401002902D509982D21FE
:104030000AE0BDF84800810702D509982B2103E06A
:10404000C00705D5099820211FAA1154401C0990CA
:104050001FA809990144079104A8594600F057F98F
:10406000FFF705BB9DF84A006C280BD00121099190
:10407000D9F8000050F8041BC9F800008DF87C1036
:10408000FFF7F5BAD9F8000050F8041BC9F8000092
:1040900015914FF0FF3210920021169115AAFFF7EB
:1040A0000ABB25210122BBF1000F8DF87C1009927B
:1040B0003FF4DDAA8DF87DB00221FFF7ABBA000016
:1040C000CBCCCC0C686A6C747A4C00007072696E50
:1040D00074665F733A2062616420256C732061729C
:1040E00067756D656E7400007072696E74665F73DB
:1040F0003A2062616420257320617267756D656E78
:104100007400000000000000000000007072696E82
:1041100074665F733A20256E20646973616C6C6FFE
:10412000776564007072696E74663A20626164201B
:10413000256E20617267756D656E740033B0BDE8E1
:10414000F08F2DE9FC410F46064690467A6B786960
:10415000396ABC6A121AB869521A796A121AF8696D
:10416000521A121A97F83800141B41070FD4202056
:10417000002C8DF800000ADD254601236A463946E9
:10418000304600F07DF900285DD16D1EF5D17B69C8
:1041900042463946304600F073F9002853D13020AA
:1041A0008DF800003D6A002D09DD01236A4639467D
:1041B000304600F065F9002845D16D1EF5D1BB6988
:1041C000FA683946304600F05BF900283BD13020D0
:1041D0008DF800007D6A002D08DD01236A4639460E
:1041E000304600F04DF970BB6D1EF6D1F868B96924
:1041F000FB6942183946304600F042F918BB3020BE
:104200008DF80000BD6A002D08DD01236A4639469D
:10421000304600F035F9B0B96D1EF6D197F8380088
:1042200041070DD52020002C8DF8000008DD01236A
:104230006A463946304600F023F920B9641EF6D1AB
:104240000020BDE8F6814FF0FF30BDE8F6812DE992
:10425000F8470D46A3B02F6B002F8246904648BF0B
:104260006FF0004701F072FB696B401801AA002152
:10427000C2E90011812828BF4FF0FF3044D289469F
:104280001EE0A74230DB6869201881280BD300218B
:10429000696303AA29465046FFF753FF5FEA000906
:1042A00022D40020686103AB6E69224669469819E2
:1042B00001F008FAA6196E6158F8040BA0B13F1B73
:1042C000002F11DDD8F8001001AA684601F07DF931
:1042D0000446002C05D4D8F800000028D1D1641E73
:1042E000CFD54FF0FF390EE0B9F1000F504604D1A1
:1042F00003AA2946FFF725FF8146B9F1000F02D135
:10430000002068616863484624B0BDE8F0872DE965
:10431000FC4307466F293E6908BF082405D041F0D9
:104320002000782814BF0A2410243C25D7E9002354
:10433000642918BF69299046994605D1002B03D5F9
:10434000D8F1000869EB4909B9F1000F08BFB8F1CD
:10435000000F0CD1386B50B9082C39D197F83800C0
:10436000010735D530203B2586F83B0030E08DF83D
:104370000010404649462246E31701F0EDFA30327C
:10438000D0B26D1E3A28019504DB9DF80000A0F123
:1043900051018A187255404649462246E31701F0FA
:1043A000DBFA80465FEA010908BFB8F1000F03D0CD
:1043B000F86871198842DCD3082C09D197F83800C5
:1043C000010705D5705D302802D06D1E3020705574
:1043D000C5F13C02BA617119F960386B824208DAA2
:1043E000821A3A624FF6EF70398F01403987BDE883
:1043F000F38300280ED597F8380000F01400102839
:1044000008D17B6B7969386A5B1A1B1A9A1A002AE1
:10441000C8BF3A62BDE8F3832DE9D04306460F4694
:1044200014464FF00008DFF8549012E0E00707D57B
:1044300042464B4630463946FEF70CFD06460F46CF
:104440004046494642464B46FEF704FD641080460E
:104450008946002CEAD130463946BDE8D0830000B9
:1044600002FCFFFFFFFF0F800000E03F0000F07F35
:10447000A08601000000F03F84D79741000024404F
:10448000F8B505460E4617461C4600205CB117F8E5
:10449000011BB068A847B06030B1F06A401CF06200
:1044A0000020641EF3D1F2BD4FF0FF30F2BD0000DA
:1044B0006E616E004E414E00696E6600494E4600C8
:1044C0003000000070B44FF0004591EA030F7EF514
:1044D000A9AD6B40841A71EB030603D2001BB141F6
:1044E000121973414FF4001C1CEB410F34BF7CEBDD
:1044F000430442E00C0DA4EB1356352E4FDC45EA85
:10450000C323DB0A45EAC121C912B6F120050DDD3E
:1045100063FA05F6EB4086EA0305124218BF45F040
:104520000105C01851F100010CD213E062FA06F542
:10453000F2405540F3415A40B340F3405A4080188E
:10454000594107D349085FEA30005FEA350528BFC3
:1045500045F0010501F58011420875F1004250F166
:10456000000041EB04514E0016F5001F70BC38BF2F
:1045700070470020090D090570471CEB410F10D250
:1045800052EA43060BD0BCEB410F05D80C0DAB43F0
:10459000661E342EB6DD02E0AB438018594170BC74
:1045A000704770BC70470000034608460122C1688E
:1045B000491CC16000210068184703460846C168CD
:1045C0000269491C521E002A0261C16003D40068BE
:1045D0000122002118474FF0FF307047034608467C
:1045E0001146C268521E11F1010FC26002D000686C
:1045F00000221847704700002DE9F84F9CB008AE24
:104600000027C6E9007700914FF0FF341B68019343
:1046100002920DF14702269B8DF81F30A0460397AA
:104620001B92814602E10A98029D25280CBF771E45
:1046300037467F1E15D40398401C03900122009832
:104640000021C84715F8011B8842F2D0024669468E
:104650004846FFF7C3FF0020404580F28B8500F0FD
:1046600088BD02980A9930442529029008D1007823
:104670002A280ED10298401C029010F8011D09E072
:104680000A98002840F0D280404580F2738500F0FF
:1046900070BD00218DF81C1000210591DFF8DC3A77
:1046A0000AE00598984205DA00EB800601EB460126
:1046B00030390591501C0290029A1178A1F1300016
:1046C0000A28EED306940FF6B820117800F086FF82
:1046D00020B10298401C0290401E00788DF81D0009
:1046E0009DF81D00682805D10299087868280CD12A
:1046F000622206E06C2802BF029908786C2804D177
:104700007122491C8DF81D200291029801780FF644
:10471000782000F063FF80B90398401C03900122C9
:1047200000980021C847064601F099F90028F3D106
:10473000324669464846FFF751FF00208DF81E00BB
:1047400002980178253930D01C3900F0C980091F42
:10475000022940F2C5800E393BD0491F00F06B831F
:10476000C91E1FD0891F00F0BB80891E00F0ED8498
:10477000491E00F06083491E022940F2B180091FE2
:1047800000F05983491F2AD0491E012940F2538362
:10479000091F21D0891E00F04E83C91E00F04B83F3
:1047A00000F0E2BC224600F0D1BC0398401C03900C
:1047B00001220098C8470646252E2AD0324669466F
:1047C0004846FFF70BFF16F1010F40F0CD8400F0D3
:1047D0001DBC6C208DF81D00012200F0B7BC9DF8B7
:1047E0001C00B0B99DF81D0062286DD0682851D01A
:1047F0006A285BD06C2801D0712857D0019951F8F4
:10480000040B019118B90FF6881000F09ABC0399B7
:104810000160B8F1000F9DF81E0048BF4FF000087E
:1048200008B108F1010802994A1C029200210A917C
:1048300008AB029922460AA800F0C1FE0646002EE7
:1048400005DC029801784E1EB641F643F60F0A9831
:1048500001F00FF901F003F900283FF4E4AE0398EA
:10486000401C0390012200980021C847074601F030
:10487000F6F80028F3D13A4669464846FFF7AEFEFF
:1048800017F1010F7FF4EDAE5FEA080040F172848A
:1048900000F068BC019951F8040B019118B90FF6AA
:1048A000F00000F04EBC03990180B2E7019951F885
:1048B000040B019118B90FF6D80000F042BC039A1E
:1048C000D317C0E90023A4E7019951F8040B019123
:1048D00018B90FF6BC0000F034BC0399017098E7DA
:1048E00005980028D8BF6FF00040049069464846FC
:1048F000FFF763FE00262B2818BF2D280DF1300A84
:1049000007D18DF8300069464846FFF756FE0DF195
:10491000310A0A270025302818D169464846FFF792
:104920004CFE40F02001C9B2782902D00125294669
:104930000BE130208AF800008AF8011048466946E9
:10494000FFF73BFE0AF1020A1027F0E740F02001D2
:10495000CAB26E2A4CD16E200AF8010B694648464D
:10496000FFF72BFE83464BF020000027C0B26128E2
:1049700040F09A8161210AF8011B48466946FFF719
:104980001CFE83464BF02000C0B26E2840F08C81A4
:1049900069464846FFF711FE282806D002466946B8
:1049A0004846FFF71BFE6E2066E00498401E049008
:1049B00005D469464846FFF7F7FD834603E00399AF
:1049C000491C0391A346CDF828B0584601F06BF876
:1049D0000028EAD1ABF130000A28E6D30A985F2814
:1049E000E3D08346BBF1290F40F05E816E2043E0A7
:1049F000C9B2692940F0B08069200AF8010B694604
:104A00004846FFF7DAFD83464BF020000027C0B28E
:104A10006E2840F049816E210AF8011B0398049921
:104A2000401C491E00290491039005D400980122DE
:104A30000021C847834600E0A3464BF02000C0B2E7
:104A4000662840F0318103980499401C491E0029D2
:104A50000491039004D4009801220021C84700E08B
:104A6000204640F02001C9B2692908D002466946B3
:104A70004846FFF7B3FD66200AF8010B1AE10398D8
:104A80000499401C491E00290491039005D4009804
:104A900001220021C847834600E0A3464BF02000D6
:104AA000C0B26E2840F0008103980499401C491E52
:104AB00000290491039005D4009801220021C847E1
:104AC000834600E0A3464BF02000C0B2692840F0C6
:104AD000EB8003980499401C491E0029049103901F
:104AE00005D4009801220021C847834600E0A34670
:104AF0004BF02000C0B2742840F0D680039804998F
:104B0000401C491E00290491039005D400980122FD
:104B10000021C847834600E0A3464BF02000C0B206
:104B2000792840F0C18066210AF8011BC2E0039891
:104B3000401C0390204607E00498401E0490F6D4E1
:104B400069464846FFF730FD01213028F4D00D4674
:104B500011B130210AF8011B8346284600250EE0DA
:104B60000398401C0390A34608E00498401E04905C
:104B7000F6D469464846FFF717FD834601201BF12E
:104B8000010F1BD05FFA8BF2612AA8BFABF157016E
:104B90000ADA412AA8BFABF1370105DA303A0A2A0E
:104BA00034BFABF13001FF21C9B2B94206D2242D86
:104BB000BABF0AF801BB6D1C761CD6E78DF8280039
:104BC0000B9500F004FD406A01788B4510D10AF87E
:104BD00001BB03980499401C491E002904910390CD
:104BE00005D4009801220021C847834600E0A3466F
:104BF0000B98E8B99DF828000FE00398401C03903B
:104C0000A34609E00498761E401E0490F5D4694638
:104C10004846FFF7C9FC83460120BBF1300FF1D0B5
:104C2000002E8DF8280003D530200AF8010B761CE1
:104C30009DF828000B9D13E00398401C0390A346A9
:104C40000DE0242DBCBF0AF801BB6D1C0498401E6A
:104C50000490F1D469464846FFF7A6FC834601203C
:104C60001BF1010F14D05FFA8BF2612AA8BFABF1E0
:104C700057010ADA412AA8BFABF1370105DA303A09
:104C80000A2A34BFABF13001FF21C9B2B942D8D3EF
:104C9000054648B14BF020000A2FC0B235D1652837
:104CA00035D001E083460D465A4669464846FFF72F
:104CB00095FC15B300218AF800109DF81C0000280F
:104CC0007FF4A7AD0A2F0B4674DC32460CA801F026
:104CD00083F801228DF81E20019A9DF81D60131D96
:104CE0006C2E40F0938012680193002A40F08B8074
:104CF0006248784400F5C37023E20CA8824508BFDF
:104D00001BF1010F40F0308280E17028CCD10AF80D
:104D100001BB0498401E049010D40398401C0390DB
:104D2000012200980021C8472B2818BF2D2811D137
:104D30000AF8010B0498401E049004D50398401C07
:104D40000390204606E00398401C0390012200983F
:104D50000021C84700210DE00398401C0390204625
:104D600007E00498401E0490F6D469464846FFF7D1
:104D70001BFC01213028F4D00A001CBF30220AF8A5
:104D8000012B0025A0F130020A2A8BD2082DBCBFCE
:104D90000AF8010B6D1C0498401E049004D503987A
:104DA000401C0390204603E069464846FFF7FCFBA1
:104DB0000121E7E700220CA801F00EF8B2000E4630
:104DC00037467B005B0D02EB030511D0002D0FDD94
:104DD00040F2FF72954206DBDFF8B01606F000469F
:104DE0003143002075E76FF31E5747EA055170E71E
:104DF00020F0000631F0004708BF002E3FF469AFF5
:104E000000F0D4FC65E7C2E9000102E54C2E07D1B1
:104E100012680193002AF6D1184878445E3090E178
:104E2000166801931EB915487844503089E1FDF7A2
:104E3000A7FF3060EDE405980028CCBF401EDFF8E6
:104E4000500600280AAF049012D40398401C039027
:104E5000012200980021C8472B2818BF2D2816D101
:104E60008DF828000DF129070498401E049007D5FD
:104E70000398401C0390204609E000BF28780000FA
:104E80000398401C0390012200980021C847029A11
:104E900012780021642A18BF752A0FD0692A08BF2A
:104EA00000260CD06F2A08BF082608D0702A1CBF25
:104EB00042F02002782A02D1102600E00A2630288B
:104EC0002ED104980125401E0490039805D4401C5F
:104ED000039001220098C84702E0401C039020463E
:104EE00040F02001C9B2782917D1002E18BF102E2A
:104EF00027D104981026401E0490039807D4401C24
:104F00000390012200980021C847002519E0401CA9
:104F1000039025464FF0000A4BE096B9082610E0B2
:104F2000FEB90A261DE00398401C0390204607E0C6
:104F30000498401E0490F6D469464846FFF734FBB7
:104F400001253028F4D029460A000AD0302207F87B
:104F5000012B06E0401C0390012200980021C84765
:104F6000012110F1010F22D0C2B2612AA8BFA0F125
:104F700057030ADA412AA8BFA0F1370305DA303A0D
:104F80000A2A34BFA0F13003FF23DBB2F2B293420E
:104F90000DD21B998F4238BF07F8010B0498401EB1
:104FA00004900398D6D5401C039001212046054665
:104FB0008A462A4669464846FFF710FBBAF1000FB9
:104FC0001DD0002139709DF81C0000287FF421AC11
:104FD00002980078642818BF69286BD032460AA866
:104FE00001F0BEF801228DF81E20029A1378702B72
:104FF00011D1019B53F8042B01934AB99FE00AA8F1
:10500000874208BF15F1010F40F0AE802046ACE0AA
:105010001060FFF7FEBB9DF81D20622A3AD0682A77
:1050200011D06A2A26D06C2A06D0712A2AD0742A76
:1050300019D07A2A10D036E0019B53F8042B019343
:10504000002AE5D17BE0019B53F8042B0193002A51
:1050500075D01080FFF7DDBB019B53F8042B019343
:10506000002AD5D16BE0019B53F8042B0193002A51
:10507000CED164E0019B53F8042B0193002A7FF406
:10508000C2AE5CE0019B53F8042B0193002A7FF42D
:10509000BAAE54E0019B53F8042B0193002A4ED082
:1050A0001070FFF7B6BB019B53F8042B0193002A45
:1050B000AED144E032460AA801F0A6F801228DF8EC
:1050C0001E209DF81D20622AE4D0682ABBD06A2ADF
:1050D0001ED06C2A06D0712A22D0742A10D07A2AC7
:1050E00007D025E0019B53F8042B0193002A8FD1B0
:1050F00025E0019B53F8042B0193002A88D11EE080
:10510000019B53F8042B0193002A7FF481AF16E032
:10511000019B53F8042B0193002A7FF474AE0EE038
:10512000019B53F8042B0193002A7FF46CAE06E038
:10513000019B53F8042B0193002A7FF469AF0FF20F
:10514000743000F057FA201A04E0002269464846FD
:1051500000F04EF800283FF75CAB269929B110F11A
:10516000230F02D1204605E00020B8F1000F48BF10
:10517000804640461DB0BDE8F08F0000CBCCCC0C83
:10518000686A6C747A4C000063436E5B0000000038
:105190007363616E665F733A2062616420256E20DE
:1051A000617267756D656E7400000000C9B208E039
:1051B00003789942A4BF90F802C08C4513DAC01C52
:1051C000D21E032A0AD343782D2BF1D010F801CB3D
:1051D0008C4518BF521EF4D105E0521E2AB110F8BA
:1051E000013B8B42F9D1012070470020704700003D
:1051F0002DE9F04F8BB00D46002603968146697F5E
:10520000019204A86C2901990CBF4FF0010BB34621
:10521000C0E90066002924D5A868411CA960084699
:1052200001785E2903BF401CA86010F8014D0024DE
:10523000AF6838785D280CBF781C38465D2100F0D7
:10524000CDF9002800F01381C11B0091A8600098DF
:10525000022806DD821E2D21781C00F007FA00B11D
:1052600001266869002805DC0198002814BF6FF04A
:10527000004001202861287FD0B96868011D0068BE
:105280006960BBF1000F07D0029088B94FF0FF347E
:105290000648784416301AE05FEA000A08D103484D
:1052A000784408304FF0FF34283010E000720000DE
:1052B000287FA8B9E87F98B1696851F8040B696044
:1052C000B0F1004FC0F007804FF0FF3471A000F044
:1052D00091F9201AD6E0A969884288BF0846A861DA
:1052E00009940A9606974FF0FF38039ECDF820B038
:1052F0000024DDF808B007E00AF8017B0120A96965
:10530000A877491EA9610226E8682969401C491E40
:1053100000292961E86024D4286801220021C847B7
:10532000074617F1010F1ED148462C46DDF80490C0
:10533000089D3A462146FFF751F9B9F1000F03D015
:10534000F0B2022800F08F80F0B2022800F09980BD
:10535000F00703D417F1010F40F089804FF0FF30C0
:1053600090E04746E0E70198002803DD384600F06A
:1053700076FB10E01FD50A98002809980ED1002866
:10538000009A0698394604D100F070F90028CBD075
:1053900011E000F06BF90028C6D10CE00028009A5B
:1053A0000698394603D1FFF701FF20B9BCE7FFF7A4
:1053B000FDFE0028B8D1089838B9287F0028A2D16E
:1053C000A869002898D10126AEE703A801460790F6
:1053D0000F55641C04AB224602A800F0F0F8811CB3
:1053E00002291BD8DFE801F002061400042C46F065
:1053F000010689D3002C07DD0798641E2946025D4B
:105400004846FFF7EBF8F5E7F6B286BB404639E0D1
:10541000029919B903A800F00DF9401C10F1030F0F
:1054200008BF0020064608E00798EA68641E521E7E
:10543000015DEA6000222868C847A642F4DB287FA5
:1054400058B9A86908B901265EE702984BF8040B21
:105450000121A869A977401EA86102266869401E3B
:105460006861002450E7207F58B9A06908B900207E
:1054700008E0002D19BF0020CBF8000000218AF8B9
:10548000001001200BB0BDE8F08F00000000F07F9D
:10549000FEFFFF7F7363616E665F733A2062616433
:1054A0002025632C2025732C206F7220255B207310
:1054B000697A65007363616E665F733A2062616446
:1054C00020696E746567657220617267756D656EBF
:1054D00074000000613807E005E0A0F161011A29BD
:1054E00001D20120704741381A288041C00F70470F
:1054F000A0F10901052901D3202801D1012070471D
:1055000000207047A0F141011A2938BF20307047B0
:105510003048704770B45368D41801E05B1C491ED2
:10552000042B08DA00291FBF057804F8015B10F886
:10553000016B002EF2D1536070BC704738B5144631
:105540001D4661B1FFF7E6FF61686A6B2046904730
:105550006FF00102811A02D0491E01D001E024E05F
:1055600026E00021616032BD38B5044608461100CE
:105570001D4615D02A46FFF7CDFF6968049B1CB96C
:105580005A6B2846904704E00A469B6B2946204602
:1055900098476FF00102811A02D0491E01D001E044
:1055A00003E005E00021696032BD6FF0010032BD0B
:1055B0004FF0FF3032BDDA6B1047064BBEE71CB52B
:1055C000044C0094FFF7D0FF16BD024BF3E70248EE
:1055D00070470000B801002080010020C9B20278A5
:1055E0008A421AB11CBF10F8012FF9E718BF00203A
:1055F0007047000080B500B906A005490B681BB1D3
:1056000022220021984701E0FCF756F8222002BD33
:1056100038090020636F6E73747261696E7420685C
:10562000616E646C65723A20626164206D657373AB
:105630006167650000F10103810704D010F8011BC8
:10564000820781B1FAD10268A2F10131914311F0D0
:10565000803104BF50F8042FF6E709BAB1FA81F19E
:1056600000EBD100401CC01A70470000C9B283078C
:1056700006D0521E22D310F8013B9942F7D11FE009
:10568000083A13D302F1040241EA012141EA01413F
:1056900050F8043B121F21BF4B40A3F1013C2CEA00
:1056A000030C1CF0803FF3D0C9B2001F083210F881
:1056B000013B521E28BF91EA030FF8D818BF012002
:1056C000401E70474AB1000011F8013B521E00F81D
:1056D000013B1CBF11F8013BF8E7704710B51446B9
:1056E00000F002F8226010BDC1F30A5343B14A0032
:1056F00012F5001F28D2A3F2FE32A1EB025170472F
:1057000050EA410C20D001F0004C31EA0C01B1FA12
:1057100081F204BFB0FA80F3D2180B3AB2F1200341
:105720002CBF00FA03F1914041EA0C013EBFC2F1E7
:10573000200C20FA0CF319439040524240F2FD3302
:10574000D21A01EB03517047002270474FF4001C3E
:105750001CEB410F94BF1CEB430F09E041EA030C23
:1057600050EA4C0C52EA0C0C03D2994208BF90420A
:10577000704714BF8B428242704700004FF4001CF8
:105780001CEB410F94BF1CEB430F09E041EA030CF3
:1057900050EA4C0C52EA0C0C03D28B4208BF8242F6
:1057A000704714BF9942904270470000124254D48F
:1057B00040F2FF7C1CEA11530FD0634531D09B1897
:1057C00063453CBF01EB0251704701F0004141EAE3
:1057D0000C510020AFF30080704750EA410320D005
:1057E00001F0004C91EA0C011CD0B1FA81F30B3BA3
:1057F0009A420DD9D21A994051EA0C01C3F1200CFA
:1058000020FA0CFC61449840531C40F2FF7CD7E71F
:10581000914041EA0C01C2F1200C20FA0CF319432B
:1058200090407047B0FA80F31533202BE0D3202A44
:10583000EED3203A203B9A4209D9D21A00FA03F15A
:1058400041EA0C010020531C40F2FF7CB8E700FA4B
:1058500002F141EA0C0100207047524240F2FF7C05
:105860001CEA11530DD06345DBD0B2EB030C3CBFF7
:10587000A1EB025170470CF1010221EA035141F4FE
:10588000801150EA410CCCD001F0004C352A27DCC5
:1058900030B481EA0C01B2F1200309DAC2F120032D
:1058A000044601FA03F5D0402843D1409C400CE067
:1058B000C3F12002450020FA03F418BF44F00104AC
:1058C00021FA03F091400C43002174F1004550F19E
:1058D000000051EB0C01244230BC7FF47BAF7047D9
:1058E0006146002076E70000C1F30A5340F2FE3221
:1058F0009B1A14DDD3F120034FEAE17208DDC902DF
:1059000041EA505141F00040D84080185040704763
:1059100003F2E13010B1D24382F000407047002022
:1059200070470000400D491840EA81200CD2490D13
:10593000A1F58061491C40F0004005DBD1F11F0159
:1059400054BFC840C01770470020704780B5FFF7AC
:10595000DFFD006C02BD0000D3BBD9B1B2F5803FC2
:105960005BD2022A1ED98C46B1FBF2F102FB11C3B5
:105970001B0443EA1043B3FBF2FC02FB1C3380B26E
:1059800040EA0343B3FBF2F002FB103240EA0C4062
:1059900000237047022A05D98446B0FBF2F002FBCF
:1059A00010C270474AB105D100F0010249085FEA10
:1059B0003000704700220023704700F029BC0B0024
:1059C0000200002100207047F7D300220023704717
:1059D000904271EB030CF2D370B5B1FA81F4B3FAD3
:1059E00083F52C1BA340C4F1200532FA05F633439E
:1059F000A2405FF00046E64002E05B085FEA320248
:105A0000841A71EB030524BF204629467641F4D35E
:105A100002000B003000002170BD70B5B1FA81F4B6
:105A2000B2FA82F5C4F120046419B4F12006DAD385
:105A3000B2405FF00044F440002502E052085FEA03
:105A40003303C61A71EB020E24BF3046714664411F
:105A50006D41F3D302000B002000290070BD10B58A
:105A60000446FFF755FD01462046096ABDE810408F
:105A7000084718B5044614F1010F83B00BD0082273
:105A8000002101A800F0C5FB01AA21466846FFF7E6
:105A90009CFD012803D04FF0FF3004B010BD9DF8ED
:105AA000000004B010BD10B50446FFF731FD0146FB
:105AB00020460969BDE81040084700002DE9B04CB8
:105AC00041EC100B2DED028B43EC182B53EC102BFB
:105AD00023F00041B1F5801F82B00DD200220029D1
